:02000000F12CE1
:10000600710DF80DF90D7408F8027508031C750FCB
:10001600F902F00DF10D0F30FC00710DF80DF90D20
:100026007408701C1C28F8027508031C750FF90269
:100036002128F80775080318750FF907F00DF10D5B
:10004600FC0B102870182D287408F807750803187B
:08005600750FF9070000080016
:10005E00831603178C1C352800002F2883120313D8
:10006E004E0803178D0003134F0803178C008316D9
:10007E008C130C150B08F0008B1355308D00AA3025
:10008E008D008C14F01B4D288B134E288B170C11E2
:02009E00080058
:1000A0008312031308164E082B3E840000088600B6
:1000B0000D30FC00FB30FD00FD0B5C28FC0B5C28C8
:1000C00000000000081288164F082B3E840000082C
:1000D00086000D30FC00FB30FD00FD0B6D28FC0B95
:1000E0006D28000000008812081750082B3E84007D
:1000F000000886000D30FC00FB30FD00FD0B7E2863
:10010000FC0B7E28000000000813881751082B3EC6
:100110008400000886000D30FC00FB30FD00FD0B64
:0E0120008F28FC0B8F280000000088130800B9
:10012E00831203137408003A031DA6287508003ABB
:10013E00031DA628FF30F0007F30F100FF28831248
:10014E000313FD01F901F80171087004031900345D
:10015E0071087506FA00FA1BFD09FB01F51FBC2894
:10016E00F409F509F40A0319F50AF11FC328F00979
:10017E00F109F00A0319F10A71087504FA00FA1B65
:10018E00D82803207B18EB28FD1F0034F009F10955
:10019E00F00A0319F10AF809F909F80A0319F90A1C
:1001AE000034F51FE728F11BE3287108F9007008E9
:1001BE00F800F101F001CB28F101F001F00A003452
:1001CE00F109F009FB0AC828F80A0319F90A74089C
:1001DE007802031DCB2875087902031DCB28F9017F
:1001EE00F801F00A0319F10AF11FCB280000FF34C1
:0201FE000800F7
:10020000831203134C08BE004D08BF000A30F400EF
:100210000030F5004C08F0004D08F10097207808F8
:10022000F0007908F1007008B8007108B9000430D6
:10023000CE007008CF002F200A30F4000030F50007
:10024000831203133E08F0003F08F1009720700866
:10025000BE007108BF000A30F4000030F50097209E
:100260007808F0007908F1007008B6007108B7004E
:100270000330CE007008CF002F200A30F400003089
:10028000F500831203133E08F0003F08F1009720A9
:100290007008BE007108BF000A30F4000030F5009D
:1002A00097207808F0007908F1007008BC00710808
:1002B000BD000230CE007008CF002F200A30F400BD
:1002C0000030F500831203133E08F0003F08F100F0
:1002D00097207008BE007108BF007008BA0071084E
:1002E000BB000130CE007008CF002F208312031313
:1002F0003A08CE003C08CF003608D0003808D100BC
:040300005020080081
:10030400831203134208BE004308BF000A30F400FE
:100314000030F5004208F0004308F1009720780807
:10032400F0007908F1007008CA007108CB004A088F
:10033400B8004B08B9000A30F4000030F500420858
:10034400F0004308F10097207008C4007108C5004C
:100354004408BE004508BF000A30F4000030F50030
:100364004408F0004508F10097207808F000790867
:10037400F1007008C8007108C9004808B6004908AF
:10038400B7000A30F4000030F5004408F0004508D6
:10039400F10097207008C6007108C7004608BE0027
:1003A4004708BF000A30F4000030F5004608F000AA
:1003B4004708F10097207808F0007908F1007008E8
:1003C400C4007108C5004408BC004508BD000A30DB
:1003D400F4000030F5004608F0004708F1009720CB
:1003E4007008BE007108BF007008BA007108BB0035
:1003F4007008CE004408CF004808D0004A08D10055
:04040400502008007C
:1004080083120313420803178D0083168C130C14F0
:0804180083120C08F00008003B
:1004200083120313FB01FA01F9018030F800F10C8B
:10043000F00C031C242A7408F90775080318750FBB
:10044000FA070318FB0A0310F01F2C2A7408FA0796
:1004500075080318750FFB07FB0CFA0CF90CF80C68
:10046000031C172A7B08F3007A08F2007908F100D0
:060470007808F00008000E
:1004760000308312031388180130AA002A08013AB3
:10048600031D582A2508003A031D582AA10A0319F4
:10049600A20A2108CC002208CD0000210130A500C7
:1004A6000530CE000130CF002F20831203132A0817
:1004B600003A031D672A2508013A031D672AA5018C
:0A04C6000530CE00CF012F20080002
:1004D00000308312031308190130B5003508013AC2
:1004E000031D862A2908003A031D862A0130A80028
:1004F0000730CE000130CF002F20013083120313CC
:10050000A9000630CE000130CF002F208312031344
:100510003508003A031D952A2908013A031D952A3A
:0C052000A9010630CE00CF012F200800FA
:0E052C008312031341088A0040088200080071
:10053A00831203132708003A031D1B2B08177F3069
:10054A0086001A30FC00F830FD00FD0BAA2AFC0BCD
:10055A00AA2A000008130914071CC42AD030FC0078
:10056A00C930FD00FD0BB72AFC0BB72A00000000BA
:10057A00071CC42A643020020318C42AA00A871C54
:10058A00D72AD030FC00C930FD00FD0BCA2AFC0B6B
:10059A00CA2A00000000871CD72A2008003C03183A
:1005AA00D72AA003071D162B0B30FB002630FC00B0
:1005BA005D30FD00FD0BDF2AFC0BDF2AFB0BDF2A77
:1005CA0000000000071D162B0130A7000A30200783
:1005DA00F0007008A0002230CE007008CF002F2053
:1005EA00033083120313A40080302406F000803005
:1005FA00003A7002031C152BA30180302306F00079
:10060A008030193A70020318132B2408C2000030F4
:10061A00C21BFF30C3008221A30A022BA403F92ABA
:10062A0009102008C200C30182219D2A071D562BEA
:10063A002708013A031D562B1030FB003930FC0005
:10064A000D30FD00FD0B272BFC0B272BFB0B272B5B
:10065A0000000000071D562BA7010330A4008030BC
:10066A002406F0008030003A7002031C502BA301CC
:10067A0080302306F0008030193A700203184E2B9E
:10068A002408C2000030C21BFF30C3008221A30A23
:10069A003D2BA403342B0A302002031C562B0A30AC
:0406AA00A0020800A2
:1006AE0083120313871D902B1030FB003930FC0092
:1006BE000D30FD00FD0B612BFC0B612BFB0B612B39
:1006CE0000000000871D902BA101A2010330A400A1
:1006DE0080302406F0008030003A7002031C8B2B11
:1006EE00A30180302306F0008030193A70020318FF
:1006FE00892B2408C2000030C21BFF30C3008221A8
:10070E00A30A782BA4036F2B2108CC002208CD005E
:04071E0000210800AE
:1007220000308312031308180130A60068223B220E
:020732000800BD
:1007340096228A110A128000840AC00A0319C10A87
:08074400F003031D9A2B0800CD
:10074C00043083120313C20004227008FF3A031D05
:10075C00B62B04300313CE003808CF002F20BF2B4C
:10076C00043083120313C200042270080313B80070
:10077C00B9013430FC00F130FD0083120313FD0B82
:10078C00C32BFC0BC32B000000000330C20004225F
:10079C007008FF3A031DD92B03300313CE00360823
:1007AC00CF002F20E22B033083120313C20004224C
:1007BC0070080313B600B7013430FC00F130FD00B3
:1007CC0083120313FD0BE62BFC0BE62B0000000041
:1007DC000230C20004227008FF3A031DFC2B0230C9
:1007EC000313CE003C08CF002F20052C02308312BF
:1007FC000313C200042270080313BC00BD01343083
:10080C00FC00F130FD0083120313FD0B092CFC0BD3
:10081C00092C000000000130C20004227008FF3ACD
:10082C00031D1F2C01300313CE003A08CF002F20DC
:10083C00282C013083120313C20004227008031306
:10084C00BA00BB013430FC00F130FD0083120313FD
:10085C00FD0B2C2CFC0B2C2C000000000A30F000A3
:10086C000030F1003608F4003708F500102270084B
:10087C003807A10039080318013E7107A200643043
:10088C00F0000030F1003C08F4003D08F5001022A7
:10089C007008A10771080318013EA207E830F000A8
:1008AC000330F1003A08F4003B08F5001022700800
:1008BC00A10771080318013EA2072230C2000422CE
:1008CC007008FF3A031D722C0313A7012230CE00CF
:1008DC002008CF002F20802C223083120313C2005B
:1008EC00042270080313A0000A307002031C802C31
:1008FC000A30A0023430FC00F130FD0083120313E7
:10090C00FD0B842CFC0B842C000000000530C20075
:10091C0004227008FF3A031D9A2C05300313CE00F5
:10092C002508CF002F20A22C053083120313C20000
:10093C00042270080313A5003430FC00F130FD00D4
:10094C0083120313FD0BA62CFC0BA62C000000003D
:10095C000630C20004227008FF3A031DBC2C06307E
:10096C000313CE002908CF002F20C42C063083128D
:10097C000313C200042270080313A9003430FC00D6
:10098C00F130FD0083120313FD0BC82CFC0BC82C9B
:10099C00000000000730C20004227008FF3A031D5B
:1009AC00DE2C07300313CE002808CF002F20E62CB6
:1009BC00073083120313C200042270080313A8002B
:1009CC003430FC00F130FD00FD0BEA2CFC0BEA2C62
:0609DC000000000008000D
:1009E20083120313A001A101A201A301A401A50185
:1009F2000130A6000130A700A801A901AA01C03058
:100A0200AB00F930AC00A430AD00B030AE0099308C
:100A1200AF009230B0008230B100F830B2008030C6
:100A2200B3009030B4000130B500B601B701B8018F
:100A3200B901BA01BB01BC01BD018316860187154C
:100A42008719252D0711262D071507192A2D87101D
:100A52002B2D871487182F2D0710302D071487137D
:100A6200871B352D0713362D0717881588193B2D3F
:100A720008113C2D08150819402D8810412D8814A5
:100A82008818452D0810462D08148813881B4B2DF5
:100A920008134C2D0817081B502D8812512D88164B
:100AA200881A552D0812562D0816890183128601BF
:100AB2008713871B5E2D07135F2D07178813881B6B
:100AC200642D0813652D0817081B692D88126A2DDD
:100AD2008816881A6E2D08126F2D08168801890152
:100AE200A62383120313891457239D229123831271
:100AF20003133508003A031D032E2608013A031D8D
:100B0200AE2D2808013A031DAE2DA8010730CE00F4
:100B1200CF012F2083120313071709150130A400F8
:100B22008030323AF000803024067002031CA32D7C
:100B32003B22831203132108C2002208C300822130
:100B4200A40A912D07130911A10A0319A20A210867
:100B5200CC002208CD000021032E2608003A031DF6
:100B6200032E2808013A031D032EA8010730CE00E8
:100B7200CF012F20013083120313A3008030F00035
:100B82008030A31B7F307002031DC92D2308200271
:100B9200031CE22D0130A4008030053AF0008030C1
:100BA20024067002031CDC2D2108C2002208C300A7
:100BB2008221A40ACD2D3B22682283120313A30AA9
:100BC200BF2D071709150130A4008030323AF0001A
:100BD200803024067002031CF92D3B226822831206
:100BE20003132108C2002208C3008221A40AE62DB1
:100BF20007130911A10A0319A20A2108CC0022082D
:100C0200CD0000212108C2002208C3008221722DDA
:020C1200092EA9
:00000001FF
